:1000000027C093CA4AC049C048C01ECA46C045C09E
:1000100044C043C042C041C040C03FC03EC00000D9
:10002000000036000000000037000000000038002B
:10003000020202020202020202020102040810206D
:1000400020041008010200000400000000005D0E02
:1000500011241FBECFE5D2E0DEBFCDBF11E0A0E688
:10006000B0E0EAE3FEE102C005900D92A234B107D0
:10007000D9F722E0A2E4B1E001C01D92AF30B2078F
:10008000E1F710E0C8E2D0E003C02197FE01C0DE36
:10009000C732D107D1F770DACECEB2CF823098F422
:1000A000E82FF0E0EE0FFF1FE05AFF4F22E831E0AB
:1000B00031832083811107C085B78C7F682B65BF92
:1000C0008BB780648BBF089586E48093890108957F
:1000D000823089F018F4813051F00895833019F09E
:1000E000843009F008958CB58F7D8CBD08958AB554
:1000F0008F778ABD08958AB58F7DFBCF1F93CF93ED
:10010000DF93282F30E0F901EC5BFF4F8491F90178
:10011000E65CFF4FD491F901E05DFF4FC491CC2321
:10012000A1F0162F8111D4DFEC2FF0E0EE0FFF1FAE
:10013000E65DFF4FA591B4918FB7F894EC91111142
:1001400008C0D095DE23DC938FBFDF91CF911F9144
:100150000895DE2BF8CFCF93DF9390E0FC01E65CAF
:10016000FF4F2491805D9F4FFC0184918823C9F04B
:1001700090E0880F991FFC01EC5DFF4FA591B491B1
:10018000FC01E65DFF4FC591D49161110DC09FB791
:10019000F8948C91209582238C938881282328833E
:1001A0009FBFDF91CF910895623051F49FB7F894CB
:1001B0003C91822F809583238C93E8812E2BEFCF67
:1001C0008FB7F894EC912E2B2C938FBFEACF3FB7CB
:1001D000F89480914D0190914E01A0914F01B09102
:1001E000500122B708B601FE05C02F3F19F0019655
:1001F000A11DB11D3FBFBA2FA92F982F8827BC0181
:10020000CD01620F711D811D911D42E0660F771FA8
:10021000881F991F4A95D1F708952FB7F8946091D8
:10022000490170914A0180914B0190914C012FBF7F
:100230000895F3DF60930302709304028093050234
:100240009093060208950895CF93C82F80E090E020
:10025000892B49F0809171018C1729F081E0C1113F
:1002600001C080E0CDDEC093710160E070E0CB01A1
:10027000C111D3DF60937201709373018093740195
:100280009093750180E090E0892B51F0809171018D
:100290008C1731F081E0C11101C080E0CF91B0CE68
:1002A000CF9108958830910559F46623E1F026E452
:1002B0002093890120E030E041E0232B79F0A0CEAB
:1002C00020E030E0232BD9F741E0811522E09207AE
:1002D00008F040E0611102C0842F0895079702974B
:1002E000D8F740E0F9CF20E030E0232B41F741E0A0
:1002F000F3CF80E090E0892B21F08091880183FD8D
:100300007FCE0895CF92DF92EF92FF920F931F93CB
:10031000CF93DF935CDF6B018091460190914701A1
:10032000E601C81BD90B8091530190915401C81765
:10033000D90708F482C08091590190915A01019720
:1003400009F052C0D0924701C09246010091550178
:10035000109156018091590190915A018230910576
:1003600009F442C18330910509F47DC1019769F414
:1003700080914501813009F479C008F46AC0833066
:1003800009F4B2C0843009F4F8C080915901909109
:100390005A01019709F451C0C017D10708F09BC159
:1003A000809143018F5F809343018B3008F445C0F7
:1003B00081E090E090935A018093590161E070E0F0
:1003C000809180016BDE109251011092450182E50F
:1003D00090E0909356018093550183E290E09093D2
:1003E00054018093530129C02091810130E0F9012B
:1003F000EC5BFF4F8491F901E65CFF4F1491F9012A
:10040000E05DFF4F0491002309F1811161DEE02FCF
:10041000F0E0EE0FFF1FE25EFF4FA591B491EC916B
:100420001E2331E020E009F430E0832F922F209149
:1004300051012817190609F485CFDF91CF911F913B
:100440000F91FF90EF90DF90CF90089590E080E0C3
:10045000EECFC017D10730F481E080934501C093FF
:10046000440193CF84E0809345018FCFC017D1071B
:10047000C8F510924501809143018F5F809343013D
:10048000209144018C2F0C2E000C990B821B91099A
:1004900027FD939597FF03C0919581959109499701
:1004A00064F210925A011092590182E990E09093FF
:1004B00056018093550182E590E09093540180931A
:1004C000530110924301F09052016F2D70E0809122
:1004D0008001E4DD8091840193E0F91226C08093CD
:1004E000510153CF83E0BFCFC017D10700F5109261
:1004F0005A011092590182E990E09093560180933D
:10050000550182E590E0909354018093530110923D
:100510004301F09052016F2D70E080918001BEDDAB
:100520008091840133E0F316D1F280E0D8CF90912E
:100530005201933009F482E08093520182E090E00E
:1005400090935A018093590182E990E0909356016B
:100550008093550182E590E090935401809353017C
:1005600010925F01809143018093600110925C01C1
:1005700010925E0110925D01CCCFC017D107A8F494
:1005800010925A011092590182E990E0909356011D
:100590008093550182E590E090935401809353013C
:1005A0001092430110925C018ECF82E090E0909314
:1005B0005A018093590182E990E09093560180930B
:1005C000550182E590E0909354018093530110927D
:1005D0005F01809143018093600110925C01109251
:1005E0005E0110925D016FCF90915C019F5F9093CF
:1005F0005C0180915D01880FC017D107E0F0809306
:100600005D01983009F0C8CEE0915F01E630A9F4B1
:1006100010925A011092590182E990E0909356018C
:100620008093550182E590E09093540180935301AB
:1006300010925C01AACE8160E2CF83E090E09093BB
:100640005A018093590181E08E0F80935F01909150
:100650005D01F0E0E75AFE4F908780915E018927A7
:1006600080935E0192CEC017D10728F510925A01EF
:100670001092590110925C0182E990E0909356012A
:100680008093550182E590E090935401809353014B
:1006900080915E01811184CE88E0EFE5F1E0A7E66C
:1006A000B1E001900D928A95E1F781E080935B01C2
:1006B000109243016ACE80915F01863009F4A8CF81
:1006C00082E090E090935A018093590110925C016E
:1006D00010925D015ACE10924301AFCECF93DF93BB
:1006E000EC019BDD6C8B7D8B8E8B9F8B60E08A8118
:1006F000DF91CF9103CDEF92FF921F93CF93DF93C2
:10070000EC018BDD6C8B7D8B8E8B9F8B8A85882398
:1007100009F444C01985E12EF12CCA8161E08C2FC7
:100720001ADDE114F10411F460E005C08FEFE81662
:10073000F10441F461E08C2FDF91CF911F91FF9084
:10074000EF90DCCCEC2FF0E0EC5BFF4FE491E2307B
:10075000D9F038F4E13071F080E8E816F10454F78C
:10076000E3CFE330B1F0E430B9F78CB580628CBDF3
:100770001BBD04C08AB580688ABD19BDDF91CF91C9
:100780001F91FF90EF9008958AB580628ABD18BDD1
:10079000F5CF8CB580628CBD1EBDF0CF61E08A8143
:1007A000CBCF0F931F93CF93DF93EC018F8198856D
:1007B000981388878D819E81981731F08E831C8ACB
:1007C0001D8A1E8A1F8A1B868B818230C9F0833066
:1007D00009F44CC0813009F069C08E8128859C8164
:1007E000291306C0CE01DF91CF911F910F9176CFD3
:1007F0008130C1F7CE01DF91CF911F910F917BCF57
:100800008E81813079F78C819885981711F082302C
:1008100049F703DD0C891D892E893F89601B710B07
:10082000820B930B088919892A893B896017710704
:100830008207930788F08B85811113C0CE015BDF9F
:100840008C859D85B0E0A0E0888B998BAA8BBB8BB3
:100850008B8591E089278B87DF91CF911F910F9135
:100860000895CE013BDF8E859F85ECCF98858C81E6
:10087000981749F01E81113031F48B85811103C026
:10088000CE0139DF1B87C9DC0C891D892E893F8980
:10089000601B710B820B930B088919892A893B898C
:1008A0006017710782079307B8F29CCF81E08B83B2
:1008B000D3CF8F929F92AF92BF92CF92DF92EF925F
:1008C000FF9261E080E01ADC82DC4B015C018AE08F
:1008D000C82ED12CE12CF12C7ADC681979098A090F
:1008E0009B09683E734081059105B0F321E0C21A6F
:1008F000D108E108F10888EE880E83E0981EA11C5B
:10090000B11CC114D104E104F10431F760E080E0CE
:10091000FF90EF90DF90CF90BF90AF909F908F901F
:10092000EDCBC7CFEBE8F1E02783278F27AB2093F0
:10093000DA01089589DCEFE6F1E081E08783108633
:10094000E8E7F1E088E0DF011D928A95E9F7089574
:10095000E8C9E7C91F93CF93DF93209185013091B8
:1009600086012F3F320729F0C901DF91CF911F91F6
:1009700008951091880117FF22C089E090E0E9DF17
:10098000C82FD0E081E090E0E4DF16FF06C09C2F86
:1009900090938601809385010DC096E0CC0FDD1FFA
:1009A0009A95E1F7C07CD1708F73C82BD0938601E4
:1009B000C09385018091850190918601D6CF15FF66
:1009C0000AC081E190E0C5DFC82F82E190E0C1DF7D
:1009D000C05CDD0BDCCF81E090E0BBDF90E0D8CFE6
:1009E0001F93CF93DF9381E590E0B3DF811101C0C6
:1009F00081E08093940182E590E0ABDF811101C03A
:100A000081E08093AC0186E590E0A3DF90E06AE0AE
:100A100070E09DD9092E000CAA0BBB0B80939B01A3
:100A200090939C01A0939D01B0939E0187E590E077
:100A300090DF90E06AE070E08AD9092E000CAA0BE2
:100A4000BB0B8093B3019093B401A093B501B09315
:100A5000B60188E590E07DDF90E06AE070E077D94C
:100A6000092E000CAA0BBB0B8093CB019093CC01F9
:100A7000A093CD01B093CE0189E590E06ADF90E0CC
:100A80006AE070E064D9092E000CAA0BBB0B8093BE
:100A9000E3019093E401A093E501B093E6018AE5B8
:100AA00090E057DF90E06AE070E051D9092E000C29
:100AB000AA0BBB0B8093FB019093FC01A093FD015B
:100AC000B093FE018CE490E044DFD82F87E490E0FF
:100AD00040DF182F82E490E03CDFC82F8DE390E0E8
:100AE00038DF815080938F01812F90E06AE070E0C1
:100AF0002ED990939801809397018D2F90E06AE012
:100B000070E025D990939A0180939901C0938E014A
:100B10008DE490E01EDFD82F88E490E01ADF182FD4
:100B200083E490E016DFC82F8EE390E012DF81505F
:100B30008093A701812F90E06AE070E008D990933C
:100B4000B0018093AF018D2F90E06AE070E0FFD894
:100B50009093B2018093B101C093A6018EE490E01E
:100B6000F8DED82F89E490E0F4DE182F84E490E0DA
:100B7000F0DEC82F8FE390E0ECDE81508093BF0160
:100B8000812F90E06AE070E0E2D89093C8018093F2
:100B9000C7018D2F90E06AE070E0D9D89093CA0128
:100BA0008093C901C093BE018FE490E0D2DED82FBC
:100BB0008AE490E0CEDE182F85E490E0CADEC82FEC
:100BC00080E490E0C6DE81508093D701812F90E0D1
:100BD0006AE070E0BCD89093E0018093DF018D2F34
:100BE00090E06AE070E0B3D89093E2018093E10175
:100BF000C093D60180E590E0ACDED82F8BE490E086
:100C0000A8DE182F86E490E0A4DEC82F81E490E0EF
:100C1000A0DE81508093EF01812F90E06AE070E0C8
:100C200096D89093F8018093F7018D2F90E06AE0B9
:100C300070E08DD89093FA018093F901C093EE0192
:100C400082E490E086DE833099F486E590E081DEF0
:100C500090E06AE070E07BD8092E000CAA0BBB0B79
:100C600080939B0190939C01A0939D01B0939E0162
:100C700083E490E06EDE833099F487E590E069DEEE
:100C800090E06AE070E063D8092E000CAA0BBB0B61
:100C90008093B3019093B401A093B501B093B601D2
:100CA00084E490E056DE833099F488E590E051DEEC
:100CB00090E06AE070E04BD8092E000CAA0BBB0B49
:100CC0008093CB019093CC01A093CD01B093CE0142
:100CD00085E490E03EDE833099F489E590E039DEEA
:100CE00090E06AE070E033D8092E000CAA0BBB0B31
:100CF0008093E3019093E401A093E501B093E601B2
:100D000086E490E026DE833099F48AE590E021DEE7
:100D100090E06AE070E01BD8092E000CAA0BBB0B18
:100D20008093FB019093FC01A093FD01B093FE0121
:100D30008DE090E00EDE80938A018BE790E009DE83
:100D4000809342018FEF90E004DE809357018AE7A1
:100D500090E0FFDD91E0811101C090E09093580197
:100D6000DF91CF911F9108954F925F926F927F9282
:100D70008F929F92AF92BF92CF92DF92EF92FF92AB
:100D80000F931F93CF93DF93162F90E04E96E1DDE4
:100D9000482E60904201862C912CB12CA12CC12CA4
:100DA000D12C76018CE3682E81E0782ECBE8D1E05F
:100DB000F0E0E0E055245394242D30E040E050E092
:100DC00060E070E080E090E00E2FE7D7217030E027
:100DD00040E050E060E070E080E090E0A0E0F8D714
:100DE00009F01D83D3010D913D019401A501B601C8
:100DF000C701D3D7217030E040E050E060E070E000
:100E000080E090E0A0E0E4D709F05D82319668963A
:100E1000E530F10589F6DF91CF911F910F91FF9099
:100E2000EF90DF90CF90BF90AF909F908F907F908A
:100E30006F905F904F90089502978F309105F8F46E
:100E4000FC01EC5DF84F09941FC019C018C01CC00C
:100E500016C01AC008C013C012C011C010C009C00B
:100E60000EC012C011C0683079F486E48093890105
:100E700008958DE090E06DDD80938A010895809162
:100E80008901811101C0ACCD08950F931F93CF93B9
:100E9000DF93EC01162F80E190E05BDD082F8FE0FF
:100EA00090E057DD801731F0CF30D10519F0CF3FFA
:100EB000D10581F4CE0135D7811731F0612FCE01F4
:100EC00038D7612FCE01B8DFCE01DF91CF911F91CE
:100ED0000F9127C780E0DF91CF911F910F91089567
:100EE0008331910580F48131910530F48130910591
:100EF00019F08930910531F42FEF3FEF30938601DF
:100F000020938501C2CF8D319105E1F7677F609312
:100F1000880120916F012F73362F307C232B209373
:100F20006F01EACFCF92DF92EF92FF920F931F9360
:100F3000CF93DF93122F4330510509F4DCC008F042
:100F40004BC04130510509F48DC04230510509F4C0
:100F5000B5C060915701EBE8F1E090E080E0C12C72
:100F6000D12C7601C394482F97018601082E04C026
:100F7000000F111F221F331F0A94D2F70095602320
:100F800021E030E05681513009F020E001C0220F0D
:100F90004A95EAF7622B019678968430910519F705
:100FA0006093570180915801882369F080916F0107
:100FB000806180936F018FEF90E092DF80916F01ED
:100FC0008F7E80936F01DF91CF911F910F91FF90E2
:100FD000EF90DF90CF9008954430510509F4A8C0F8
:100FE0004530510509F0B5CF622F617085E1BCDE57
:100FF000C12FD0E0BE0175956795617086E1B4DEC2
:10100000BE017595679575956795617087E1ACDE52
:10101000BE0153E0759567955A95E1F7617088E1D7
:10102000A3DEBE01E4E075956795EA95E1F761708E
:1010300089E19ADEBE01F5E075956795FA95E1F7CD
:1010400061708AE191DEA6E0D595C795AA95E1F792
:101050006C2F61708BE188DE612F661F6627661F2B
:101060008CE12AC08DE190E074DCC12FD0E081FFDB
:1010700009C0BE0194E0759567959A95E1F7617096
:1010800080E072DE612F617081E06EDEBE017595D9
:101090006795617082E068DEBE017595679575950C
:1010A0006795617083E060DE83E0D595C7958A958A
:1010B000E1F76C2F617084E057DE4BCF622F6170D7
:1010C00085E052DEC12FD0E0BE0175956795617055
:1010D00086E04ADEBE0175956795759567956170E6
:1010E00087E042DEB3E0D595C795BA95E1F76C2F5E
:1010F000617088E0E1CF622F617089E035DEC12F39
:10110000D0E0BE017595679561708AE02DDEBE0165
:10111000759567957595679561708BE025DEBE01C5
:10112000E3E075956795EA95E1F761708CE0C4CFCF
:10113000622F61708DE018DEC12FD0E0BE01759581
:10114000679561708EE010DEBE01759567957595A7
:10115000679561708FE008DEBE0183E07595679545
:101160008A95E1F7617080E1FFDDBE0194E075953D
:1011700067959A95E1F7617081E1F6DDBE0125E0A2
:10118000759567952A95E1F7617082E1EDDD36E0AE
:10119000D595C7953A95E1F76C2F617083E1E4DD51
:1011A000612F661F6627661F84E186CFBF92CF92AC
:1011B000DF92EF92FF920F931F93CF93DF938B01F8
:1011C000B42E690182FF1FC083FF15C061E0C80112
:1011D00069D88823A9F16B2DC80182DE8B1130C03C
:1011E000F601DF91CF911F910F91FF90EF90DF906B
:1011F000CF90BF90099460E0C80154D8882301F1D2
:10120000C801A7DBEBCF842F8770C1E0D0E07E015F
:1012100001C0EE0C8A95EAF7D42FD870CB0199DB88
:10122000C82FB4FE1AC061E0C8013CD8882341F041
:10123000DD2381F0CE296C2FC80152DE8C1781F29C
:10124000DF91CF911F910F91FF90EF90DF90CF90A2
:10125000BF900895E094CE21EECF60E0C80122D87F
:10126000882371F3CE21DD2319F0C111B9CFE8CF66
:10127000CC2309F4B5CFE4CFCF92DF92EF92FF9267
:101280000F931F93CF93DF937C016B01C42F122F19
:10129000D42FD07E80916F0187FF28C0D03EA1F56A
:1012A000C0907001CC2081F1D12CC60152DBD82F27
:1012B000C60101964EDB982F8D2FE816F90621F511
:1012C0006C2F70E0762F662766277370612B6F5F37
:1012D0007F4F29E731E0402F8C2FDF91CF911F9175
:1012E0000F91FF90EF90DF90CF9060CF80FD31C0E5
:1012F000D03609F460C088F4D03209F444C0D03448
:1013000009F459C0DD2369F1DF91CF911F910F914D
:10131000FF90EF90DF90CF900895D03A09F47DC010
:1013200088F42C2F2F7141E050E0D03869F7B601D6
:10133000C701DF91CF911F910F91FF90EF90DF9048
:10134000CF90F0CDD03C09F471C0D03E09F4B8CFB5
:10135000DBCF00DB8E159F0559F2E114F10441F259
:10136000D3CF8C2F8E7081F680E090E0892B61F2D4
:101370008C2F8170DF91CF911F910F91FF90EF9093
:10138000DF90CF903DC6CF71CF3109F0BDCF412F57
:101390004F7769F0413069F0111F1127111F212F7C
:1013A00030E00FE710E0B601C701BCDAADCF41E095
:1013B000F3CF40E0F1CF2C2F30E08C2F8F718130B4
:1013C00029F030F0803121F08131E9F440E001C0B2
:1013D00041E025FB222720F90DE110E030E0B601C5
:1013E000C701A0DA80E090E0892B09F48DCF4C2F63
:1013F000B601C701DF91CF911F910F91FF90EF9040
:10140000DF90CF90FDC5C901880F991F8E71C4FB75
:10141000442740F9482B4250DCCF2C2F2F7043E05B
:1014200050E0C4FF84CF42E050E081CFCF71CE3195
:1014300039F0CF3109F068CF212F45E050E077CF68
:10144000212F44E050E073CF1F920F920FB60F92FE
:1014500011242F933F938F939F93AF93BF938091CA
:10146000490190914A01A0914B01B0914C013091FA
:10147000480123E0230F2D3758F50196A11DB11D1A
:10148000209348018093490190934A01A0934B0116
:10149000B0934C0180914D0190914E01A0914F016C
:1014A000B09150010196A11DB11D80934D01909303
:1014B0004E01A0934F01B0935001BF91AF919F9106
:1014C0008F913F912F910F900FBE0F901F90189505
:1014D00026E8230F0296A11DB11DD2CF1F920F92B5
:1014E0000FB60F9211242F933F934F935F936F93F7
:1014F0007F938F939F93AF93BF93EF93FF93E0916D
:101500006200F09163000995FF91EF91BF91AF9157
:101510009F918F917F916F915F914F913F912F910B
:101520000F900FBE0F901F9018951F920F920FB63D
:101530000F9211242F933F934F935F936F937F9359
:101540008F939F93AF93BF93EF93FF93E0916000CE
:10155000F09161000995FF91EF91BF91AF919F913B
:101560008F917F916F915F914F913F912F910F904C
:101570000FBE0F901F90189578948AB582608ABD2F
:101580008AB581608ABD83B7826083BF83B781607B
:1015900083BF89B7826089BF80B7826080BF80B710
:1015A000816080BF329A319A309A379A8CB58064C4
:1015B0008CBDC1E0C093950110928D0161E080E087
:1015C000CAD56091910180918D0198D58BE891E009
:1015D00085D8C093AD01C093A50161E081E0BBD582
:1015E0006091A9018091A50189D583EA91E076D81F
:1015F00084E08093BD0161E0AED56091C10180912E
:10160000BD017CD58BEB91E069D81092800182E01E
:1016100080938101C093840162E09DD5E9E5F1E00A
:1016200086E1DF011D928A95E9F782E990E09093C7
:1016300056018093550182E590E090935401809388
:10164000530183E080936F01109270012FEF3FEF01
:101650003093860120938501109287018093520177
:10166000809184018093510163E070E0809180015A
:1016700015D58DE190E06DD9682F6F738DE190E005
:101680002FDC8093880187E090E063D98F3F29F4B5
:1016900088E090E05ED98F3F09F0C0E06AE087E023
:1016A00090E01EDC6DE088E090E01ADC80E042D93A
:1016B000CC2319F086E480938901809189018111FE
:1016C00001C08ED98AE790E044D991E0811101C030
:1016D00090E090935801882369F1E09157018E2F93
:1016E0008170809390012E2F30E040E050E060E068
:1016F00070E080E090E001E050D321702093A801D9
:101700002E2F30E040E050E060E070E080E090E0BC
:1017100002E043D321702093C0012E2F30E040E03F
:1017200050E060E070E080E090E003E036D32170AC
:101730002093D801412C55245394C0E06C2EC0E076
:101740007C2ED0E0CD2ED0E0DD2E10E0A12E10E0DA
:10175000B12E00E0802E00E0902E80917101882350
:10176000A1F05BD500917201109173012091740179
:1017700030917501601B710B820B930B6531710504
:101780008105910510F080E0D5D880915B01882318
:1017900071F1F89488E0E7E6F1E0A7E0B2E00190AB
:1017A0000D928A95E1F710925B017894809107027F
:1017B000E82FF0E0E75FFD4F863018F411928F5F5D
:1017C000FBCF87E092E035D580910902811186C078
:1017D00090910A02911182C0A114B10409F010D4B1
:1017E00080917101882309F476C081E02DD515D54B
:1017F000009103021091040220910502309106022B
:10180000601B710B820B930B64367105810591058A
:1018100058F1E0918A012E2F30E040E050E060E086
:1018200070E080E090E001E0B8D221702093900158
:101830002E2F30E040E050E060E070E080E090E08B
:1018400002E0ABD221702093A8012E2F30E040E0BF
:1018500050E060E070E080E090E004E09ED2217013
:101860002093C0011092D801CBE8D1E0E881F98142
:101870000190F081E02DCE0109956896B1E0CB3E54
:10188000DB07A1F780918901882309F40FC2811435
:10189000910409F008C280918901815080938901E7
:1018A00090E063E070E053D2FC01E659FF4F6281A3
:1018B0008081918120916F01206120936F0110DB65
:1018C00080916F018F7E80936F01809189018111DA
:1018D000EDC186D8EBC181E02DD889CF90917101FF
:1018E000992309F479C08057803108F073C081E0F2
:1018F000ABD4C091070280917801C81309C04C2F66
:1019000050E06AE771E089E092E088D2892B61F0CB
:101910001092770188E0E7E0F2E0A8E7B1E00190FB
:101920000D928A95E1F763CF809177018F5F809365
:101930007701C330C1F520910902822F8770109181
:101940000A02853021F410937601B3D750CFCDE150
:10195000D0E0843089F0C82FD0E0843060F48091EA
:101960007601882341F08150990B880F991F880FC9
:10197000991FC80FD91F219623FF0CC061E0CE012B
:1019800091D4882309F433CF612FCE01A9DA18133B
:101990002ECFDBCF60E0CE0185D4882309F427CF9A
:1019A000CE01D7D7F4CFC43009F021CF80910902FE
:1019B000682F70E0762F66276627737090910A0271
:1019C000692B6F5F7F4F21E934E040910B028C70EF
:1019D000EDDB0DCF80E0AED7E0910902EF3F51F48F
:1019E00080910A02811103CFC114D10409F4FFCE02
:1019F00007D3FDCEE7FD0CC000910C0220910B0235
:101A000040910A0270E060E08E2F90E035DCEFCE6E
:101A1000E03C08F037C190916F0197FFE8CE40910C
:101A20000A02242F30E0E901C095D095CC0FDD1FCC
:101A3000CC0FDD1FC07CD170EF73CE2B3595279571
:101A4000B22FB3703B2E80910702853019F54C7888
:101A50004C3001F57FD78C179D0721F0CF3FD14047
:101A600009F0C5CEC0910A02D0E0DC2FCC27CC27EC
:101A7000D37080910B02C80FD11D219610910C02DA
:101A800061E0CE010FD4612F882309F4B0CECE01DE
:101A900027DAADCE7E01A1E0EA1AF108EE0CFF1CB8
:101AA000EE0CFF1CE32887010F5F1F4F8091870119
:101AB0008823C9F096FF39C0C801B20159D1682FF7
:101AC00081E090E00DDAC80117FF02C081509F4FFE
:101AD000692F89E090E004DA6114710411F0C80103
:101AE0008FD21092870180916F0180FD34C0809168
:101AF0000702843009F045C080910A02897881305C
:101B000009F075CE80E090E0892B21F060910B0206
:101B1000C80176D2A0E0B0E0AB2B09F468CE4091CA
:101B20000B02632DC8016CD262CEBE016F737727A2
:101B300081E090E0D5D9BE0146E0759567954A955C
:101B4000E1F789E090E0CCD980E090E0892B49F280
:101B5000CE0156D2C6CF86FF09C0FCD680179107AA
:101B600031F20D3F97E0190714F641CEF3D68C17EA
:101B70009D0709F4BCCFCF3FA1E0DA0709F4B7CF46
:101B800036CE833051F540910A02B42FB170EB2E5E
:101B900043FBFF24F0F880E090E0892B29F04770A8
:101BA0002F2DBE01C8012CD280916F0186FF0AC083
:101BB000A0E0B0E0AB2B09F41ACE4F2D6E2DC8017A
:101BC0001FD215CE80E090E0892B09F410CE2F2D86
:101BD0004E2D632DCE0114D20ACE863009F007CEE9
:101BE00080910A02982F9978913021F08F7880386F
:101BF00009F0FDCD80916F0186FF23C0ABD6801721
:101C00009107D9F480910B0290E0D82FCC27CC27F4
:101C1000D37020910C02C20FD11D219610910D029C
:101C2000959587959595879583709927823091052D
:101C300081F0039709F424CFDACD0D3F174014F754
:101C4000D6CD88D68C179D07E9F2CF3FD140D1F28F
:101C5000CECD14FFCCCD61E0CE0124D3882309F48E
:101C6000C6CDCE0176D6912F977061E070E001C0AD
:101C7000660F9A95EAF713FF02C0682B08CF6095AC
:101C8000682305CFE83E08F0B2CDE05CFF0B809101
:101C90000A0200910D0220910C0240910B0261E0BA
:101CA00070E09E2FB3CEACD18111F5CD80E090E0F5
:101CB000892B09F452CDA4D13DCDEF92FF920F9321
:101CC0001F93CF93DF93CBE8D1E088E6E82E80E046
:101CD000F82E01E01FEFF982E8820B831D821E823D
:101CE00019871A861B86188A198A1A8A1B8A61E044
:101CF0008A8131D2CE01F2D4689682E0C330D8070F
:101D000051F78BD260930302709304028093050213
:101D100090930602DF91CF911F910F91FF90EF906A
:101D20000895E199FECF9FBB8EBBE09A99278DB3B2
:101D30000895262FE199FECF1CBA9FBB8EBB2DBB09
:101D40000FB6F894E29AE19A0FBE01960895002426
:101D5000552704C0080E591F880F991F009729F0B6
:101D600076956795B8F37105B9F7802D952F08958D
:101D700097FB072E16F4009406D077FD08D034D0D8
:101D800007FC05D03EF4909581959F4F089570957E
:101D900061957F4F089597FD1094002E083098F0BC
:101DA0000850232F342F452F562F672F782F892F38
:101DB000912DF4CF159497958795779567955795BD
:101DC0004795379527950A95AAF71124002D089570
:101DD0000024A7FD00942A17300540055005600532
:101DE0007005800590050895AA1BBB1B51E107C033
:101DF000AA1FBB1FA617B70710F0A61BB70B881F9B
:101E0000991F5A95A9F780959095BC01CD01089529
:101E1000EE0FFF1F0590F491E02D0994FB01DC010A
:101E200004C08D910190801921F441505040C8F7B1
:0A1E3000881B990B0895F894FFCF6A
:101E3A002301230100000000D103010003020078FE
:101E4A000500FF07000308000D0F00001000000D39
:101E5A0000001100001200031D00021E00031F00F3
:101E6A0004200008210010220000230000240000A2
:101E7A002500002600002700002800002900002A6B
:101E8A0000002B00002C00002D00002E00002F0067
:101E9A00003000003100003200003300003400003E
:101EAA003500003600003700003800003900003ADB
:101EBA0000003D00033E00033F00034000024100D2
:101ECA0002420001430001440003450002460002A9
:101EDA004700644800644900644A00644B00644C4B
:101EEA0000644D00644E00644F0064500064510069
:101EFA00FF5200FF560000570000580064590000C6
:101F0A005A00007A00007B0000FF0000010204086A
:021F1A001000B5
:00000001FF
