:1000000027C03BCA4AC049C048C0C6C946C045C04F
:1000100044C043C042C041C040C03FC03EC00000D9
:10002000000036000000000037000000000038002B
:10003000020202020202020202020102040810206D
:100040002004100801020000040000000000DE0D82
:1000500011241FBECFE5D2E0DEBFCDBF11E0A0E688
:10006000B0E0ECE3FDE102C005900D92AA33B107C8
:10007000D9F722E0AAE3B1E001C01D92A530B20792
:10008000E1F710E0C8E2D0E003C02197FE0141DEB5
:10009000C732D107D1F718DA4FCEB2CF823098F4F9
:1000A000E82FF0E0EE0FFF1FE05AFF4F22E831E0AB
:1000B00031832083811107C085B78C7F682B65BF92
:1000C0008BB780648BBF089585E480938001089589
:1000D000823089F018F4813051F00895833019F09E
:1000E000843009F008958CB58F7D8CBD08958AB554
:1000F0008F778ABD08958AB58F7DFBCF1F93CF93ED
:10010000DF93282F30E0F901EC5BFF4F8491F90178
:10011000E65CFF4FD491F901E05DFF4FC491CC2321
:10012000A1F0162F8111D4DFEC2FF0E0EE0FFF1FAE
:10013000E65DFF4FA591B4918FB7F894EC91111142
:1001400008C0D095DE23DC938FBFDF91CF911F9144
:100150000895DE2BF8CFCF93DF9390E0FC01E65CAF
:10016000FF4F2491805D9F4FFC0184918823C9F04B
:1001700090E0880F991FFC01EC5DFF4FA591B491B1
:10018000FC01E65DFF4FC591D49161110DC09FB791
:10019000F8948C91209582238C938881282328833E
:1001A0009FBFDF91CF910895623051F49FB7F894CB
:1001B0003C91822F809583238C93E8812E2BEFCF67
:1001C0008FB7F894EC912E2B2C938FBFEACF3FB7CB
:1001D000F8948091440190914501A0914601B0911D
:1001E000470122B708B601FE05C02F3F19F001965E
:1001F000A11DB11D3FBFBA2FA92F982F8827BC0181
:10020000CD01620F711D811D911D42E0660F771FA8
:10021000881F991F4A95D1F708952FB7F8946091D8
:1002200040017091410180914201909143012FBFA3
:100230000895F3DF6093F9017093FA018093FB0155
:100240009093FC0108950895CF93C82F80E090E02B
:10025000892B49F0809168018C1729F081E0C11148
:1002600001C080E0CDDEC093680160E070E0CB01AA
:10027000C111D3DF6093690170936A0180936B01B0
:1002800090936C0180E090E0892B51F0809168019F
:100290008C1731F081E0C11101C080E0CF91B0CE68
:1002A000CF9108958830910559F46623E1F025E453
:1002B0002093800120E030E041E0232B79F0A0CEB4
:1002C00020E030E0232BD9F741E0811522E09207AE
:1002D00008F040E0611102C0842F0895079702974B
:1002E000D8F740E0F9CF20E030E0232B41F741E0A0
:1002F000F3CF80E090E0892B21F080917F0183FD96
:100300007FCE0895CF92DF92EF92FF920F931F93CB
:10031000CF93DF935CDF6B0180913D0190913E01B3
:10032000E601C81BD90B80914A0190914B01C81777
:10033000D90708F482C08091500190915101019732
:1003400009F052C0D0923E01C0923D0100914C0193
:1003500010914D0180915001909151018230910591
:1003600009F442C18330910509F47DC1019769F414
:1003700080913C01813009F479C008F46AC083306F
:1003800009F4B2C0843009F4F8C080915001909112
:100390005101019709F451C0C017D10708F09BC162
:1003A00080913A018F5F80933A018B3008F445C009
:1003B00081E090E0909351018093500161E070E002
:1003C000809177016BDE1092480110923C0182E52A
:1003D00090E090934D0180934C0183E290E09093E4
:1003E0004B0180934A0129C02091780130E0F90146
:1003F000EC5BFF4F8491F901E65CFF4F1491F9012A
:10040000E05DFF4F0491002309F1811161DEE02FCF
:10041000F0E0EE0FFF1FE25EFF4FA591B491EC916B
:100420001E2331E020E009F430E0832F922F209149
:1004300048012817190609F485CFDF91CF911F9144
:100440000F91FF90EF90DF90CF90089590E080E0C3
:10045000EECFC017D10730F481E080933C01C09308
:100460003B0193CF84E080933C018FCFC017D1072D
:10047000C8F510923C0180913A018F5F80933A0158
:1004800020913B018C2F0C2E000C990B821B9109A3
:1004900027FD939597FF03C0919581959109499701
:1004A00064F2109251011092500182E990E0909311
:1004B0004D0180934C0182E590E090934B01809335
:1004C0004A0110923A01F09049016F2D70E080913D
:1004D0007701E4DD80917B0193E0F91226C08093DF
:1004E000480153CF83E0BFCFC017D10700F510926A
:1004F00051011092500182E990E090934D01809358
:100500004C0182E590E090934B0180934A01109258
:100510003A01F09049016F2D70E080917701BEDDC6
:1005200080917B0133E0F316D1F280E0D8CF909137
:100530004901933009F482E08093490182E090E020
:10054000909351018093500182E990E090934D0186
:1005500080934C0182E590E090934B0180934A0197
:100560001092560180913A018093570110925301E5
:100570001092550110925401CCCFC017D107A8F4A6
:10058000109251011092500182E990E090934D0138
:1005900080934C0182E590E090934B0180934A0157
:1005A00010923A01109253018ECF82E090E0909326
:1005B00051018093500182E990E090934D01809326
:1005C0004C0182E590E090934B0180934A01109298
:1005D000560180913A018093570110925301109275
:1005E0005501109254016FCF909153019F5F9093EA
:1005F000530180915401880FC017D107E0F0809318
:100600005401983009F0C8CEE0915601E630A9F4C3
:10061000109251011092500182E990E090934D01A7
:1006200080934C0182E590E090934B0180934A01C6
:1006300010925301AACE8160E2CF83E090E09093C4
:1006400051018093500181E08E0F8093560190916B
:100650005401F0E0E05BFE4F9087809155018927BF
:100660008093550192CEC017D10728F51092510101
:10067000109250011092530182E990E090934D0145
:1006800080934C0182E590E090934B0180934A0166
:1006900080915501811184CE88E0E6E5F1E0AEE578
:1006A000B1E001900D928A95E1F781E080935201CB
:1006B00010923A016ACE80915601863009F4A8CF93
:1006C00082E090E090935101809350011092530189
:1006D000109254015ACE10923A01AFCECF93DF93CD
:1006E000EC019BDD6C8B7D8B8E8B9F8B60E08A8118
:1006F000DF91CF9103CDEF92FF921F93CF93DF93C2
:10070000EC018BDD6C8B7D8B8E8B9F8B8A85882398
:1007100009F444C01985E12EF12CCA8161E08C2FC7
:100720001ADDE114F10411F460E005C08FEFE81662
:10073000F10441F461E08C2FDF91CF911F91FF9084
:10074000EF90DCCCEC2FF0E0EC5BFF4FE491E2307B
:10075000D9F038F4E13071F080E8E816F10454F78C
:10076000E3CFE330B1F0E430B9F78CB580628CBDF3
:100770001BBD04C08AB580688ABD19BDDF91CF91C9
:100780001F91FF90EF9008958AB580628ABD18BDD1
:10079000F5CF8CB580628CBD1EBDF0CF61E08A8143
:1007A000CBCF0F931F93CF93DF93EC018F8198856D
:1007B000981388878D819E81981731F08E831C8ACB
:1007C0001D8A1E8A1F8A1B868B818230C9F0833066
:1007D00009F44CC0813009F069C08E8128859C8164
:1007E000291306C0CE01DF91CF911F910F9176CFD3
:1007F0008130C1F7CE01DF91CF911F910F917BCF57
:100800008E81813079F78C819885981711F082302C
:1008100049F703DD0C891D892E893F89601B710B07
:10082000820B930B088919892A893B896017710704
:100830008207930788F08B85811113C0CE015BDF9F
:100840008C859D85B0E0A0E0888B998BAA8BBB8BB3
:100850008B8591E089278B87DF91CF911F910F9135
:100860000895CE013BDF8E859F85ECCF98858C81E6
:10087000981749F01E81113031F48B85811103C026
:10088000CE0139DF1B87C9DC0C891D892E893F8980
:10089000601B710B820B930B088919892A893B898C
:1008A0006017710782079307B8F29CCF81E08B83B2
:1008B000D3CF8F929F92AF92BF92CF92DF92EF925F
:1008C000FF9261E080E01ADC82DC4B015C018AE08F
:1008D000C82ED12CE12CF12C7ADC681979098A090F
:1008E0009B09683E734081059105B0F321E0C21A6F
:1008F000D108E108F10888EE880E83E0981EA11C5B
:10090000B11CC114D104E104F10431F760E080E0CE
:10091000FF90EF90DF90CF90BF90AF909F908F901F
:10092000EDCBC7CFE1E8F1E02783278F27AB2093FA
:10093000D001089589DCE6E6F1E081E08783108646
:10094000EFE6F1E088E0DF011D928A95E9F708956E
:1009500069C968C91F93CF93DF9320917C013091BF
:100960007D012F3F320729F0C901DF91CF911F91FF
:10097000089510917F0117FF22C089E090E0E9DF20
:10098000C82FD0E081E090E0E4DF16FF06C09C2F86
:1009900090937D0180937C010DC096E0CC0FDD1F0C
:1009A0009A95E1F7C07CD1708F73C82BD0937D01ED
:1009B000C0937C0180917C0190917D01D6CF15FF81
:1009C0000AC081E190E0C5DFC82F82E190E0C1DF7D
:1009D000C05CDD0BDCCF81E090E0BBDF90E0D8CFE6
:1009E0001F93CF93DF9381E590E0B3DF811101C0C6
:1009F00081E080938A0182E590E0ABDF811101C044
:100A000081E08093A20186E590E0A3DF90E06AE0B8
:100A100070E01ED9092E000CAA0BBB0B809391012C
:100A200090939201A0939301B093940187E590E095
:100A300090DF90E06AE070E00BD9092E000CAA0B61
:100A4000BB0B8093A9019093AA01A093AB01B09333
:100A5000AC0188E590E07DDF90E06AE070E0F8D8D6
:100A6000092E000CAA0BBB0B8093C1019093C2010D
:100A7000A093C301B093C40189E590E06ADF90E0E0
:100A80006AE070E0E5D8092E000CAA0BBB0B80933E
:100A9000D9019093DA01A093DB01B093DC018AE5E0
:100AA00090E057DF90E06AE070E0D2D8092E000CA9
:100AB000AA0BBB0B8093F1019093F201A093F30179
:100AC000B093F4018CE490E044DFD82F87E490E009
:100AD00040DF182F82E490E03CDFC82F8DE390E0E8
:100AE00038DF815080938501812F90E06AE070E0CB
:100AF000AFD890938E0180938D018D2F90E06AE0A6
:100B000070E0A6D89093900180938F01C0938401E8
:100B10008DE490E01EDFD82F88E490E01ADF182FD4
:100B200083E490E016DFC82F8EE390E012DF81505F
:100B300080939D01812F90E06AE070E089D89093C6
:100B4000A6018093A5018D2F90E06AE070E080D827
:100B50009093A8018093A701C0939C018EE490E03C
:100B6000F8DED82F89E490E0F4DE182F84E490E0DA
:100B7000F0DEC82F8FE390E0ECDE81508093B5016A
:100B8000812F90E06AE070E063D89093BE0180937B
:100B9000BD018D2F90E06AE070E05AD89093C001BB
:100BA0008093BF01C093B4018FE490E0D2DED82FD0
:100BB0008AE490E0CEDE182F85E490E0CADEC82FEC
:100BC00080E490E0C6DE81508093CD01812F90E0DB
:100BD0006AE070E03DD89093D6018093D5018D2FC7
:100BE00090E06AE070E034D89093D8018093D70108
:100BF000C093CC0180E590E0ACDED82F8BE490E090
:100C0000A8DE182F86E490E0A4DEC82F81E490E0EF
:100C1000A0DE81508093E501812F90E06AE070E0D2
:100C200017D89093EE018093ED018D2F90E06AE04C
:100C300070E00ED89093F0018093EF01C093E4012F
:100C400082E490E086DE833099F486E590E081DEF0
:100C500090E06AE070E0FCD7092E000CAA0BBB0BF9
:100C60008093910190939201A0939301B09394018A
:100C700083E490E06EDE833099F487E590E069DEEE
:100C800090E06AE070E0E4D7092E000CAA0BBB0BE1
:100C90008093A9019093AA01A093AB01B093AC01FA
:100CA00084E490E056DE833099F488E590E051DEEC
:100CB00090E06AE070E0CCD7092E000CAA0BBB0BC9
:100CC0008093C1019093C201A093C301B093C4016A
:100CD00085E490E03EDE833099F489E590E039DEEA
:100CE00090E06AE070E0B4D7092E000CAA0BBB0BB1
:100CF0008093D9019093DA01A093DB01B093DC01DA
:100D000086E490E026DE833099F48AE590E021DEE7
:100D100090E06AE070E09CD7092E000CAA0BBB0B98
:100D20008093F1019093F201A093F301B093F40149
:100D30008FEF90E00EDE80934E018AE790E009DEAF
:100D400091E0811101C090E090934F01DF91CF912C
:100D50001F9108950F93CF93DF93C62F90E04E9687
:100D6000F8DDD82FF0E0E0E02D2F30E040E050E05B
:100D700060E070E080E090E00E2F90D7217030E0CE
:100D800040E050E060E070E080E090E0A0E0A1D7BB
:100D900049F0CF0168E170E05BD78F579E4FDC01CF
:100DA0001596CC933196E530F105F1F6DF91CF91B0
:100DB0000F91089502978F309105C8F4FC01EE5110
:100DC000F94F099419C013C012C016C010C014C046
:100DD00008C00DC00CC00BC00AC00EC008C00CC0BB
:100DE0000BC0683049F485E48093800108958091B8
:100DF0008001811101C0F4CD08950F931F93CF930B
:100E0000DF93EC01162F80E190E0A3DD082F8FE047
:100E100090E09FDD801731F0CF30D10519F0CF3F42
:100E2000D10581F4CE01FED6811731F0612FCE01BC
:100E300001D7612FCE01BEDFCE01DF91CF911F918F
:100E40000F91F0C680E0DF91CF911F910F9108952F
:100E50008331910580F48131910530F48130910521
:100E600019F08930910531F42FEF3FEF30937D0178
:100E700020937C01C2CF8D319105E1F7677F6093AC
:100E80007F01209166012F73362F307C232B209316
:100E90006601EACFCF92DF92EF92FF920F931F93FA
:100EA000CF93DF93122F4330510509F4CCC008F0E3
:100EB0004BC04130510509F48DC04230510509F451
:100EC000B5C060914E01E1E8F1E090E080E0C12C16
:100ED000D12C7601C394482F97018601082E04C0B7
:100EE000000F111F221F331F0A94D2F700956023B1
:100EF00021E030E05681513009F020E001C0220F9E
:100F00004A95EAF7622B019678968430910519F795
:100F100060934E0180914F01882369F080916601B2
:100F20008061809366018FEF90E092DF809166018F
:100F30008F7E80936601DF91CF911F910F91FF907B
:100F4000EF90DF90CF9008954430510509F498C098
:100F50004530510509F0B5CF622F617085E1FADEA9
:100F6000C12FD0E0BE0175956795617086E1F2DE14
:100F7000BE017595679575956795617087E1EADEA5
:100F8000BE0153E0759567955A95E1F7617088E168
:100F9000E1DEBE01E4E075956795EA95E1F76170E1
:100FA00089E1D8DEBE01F5E075956795FA95E1F720
:100FB00061708AE1CFDEA6E0D595C795AA95E1F7E5
:100FC0006C2F61708BE1C6DE612F661F6627661F7E
:100FD0008CE12AC08DE190E0BCDCC12FD0E081FF24
:100FE00009C0BE0104E0759567950A95E1F7617047
:100FF00080E0B0DE612F617081E0ACDEBE017595EE
:101000006795617082E0A6DEBE017595679575955E
:101010006795617083E09EDEB3E0D595C795BA957C
:10102000E1F76C2F617084E095DE4BCF1170612F7A
:1010300085E090DE612F86E08DDE612F87E08ADE1D
:10104000612F88E0F1CF622F617089E083DEC12FCC
:10105000D0E0BE017595679561708AE07BDEBE01C8
:10106000759567957595679561708BE073DEBE0128
:10107000E3E075956795EA95E1F761708CE0D4CF70
:10108000622F61708DE066DEC12FD0E0BE017595E4
:10109000679561708EE05EDEBE017595679575950A
:1010A000679561708FE056DEBE0183E075956795A8
:1010B0008A95E1F7617080E14DDEBE0194E075959F
:1010C00067959A95E1F7617081E144DEBE0125E004
:1010D000759567952A95E1F7617082E13BDE36E010
:1010E000D595C7953A95E1F76C2F617083E132DEB3
:1010F000612F661F6627661F84E196CFBF92CF924D
:10110000DF92EF92FF920F931F93CF93DF938B01A8
:10111000B42E690182FF1FC083FF15C061E0C801C2
:10112000C1D88823A9F16B2DC80192DE8B1130C084
:10113000F601DF91CF911F910F91FF90EF90DF901B
:10114000CF90BF90099460E0C801ACD8882301F12A
:10115000C801FFDBEBCF842F8770C1E0D0E07E01B8
:1011600001C0EE0C8A95EAF7D42FD870CB01F1DBE1
:10117000C82FB4FE1AC061E0C80194D8882341F09A
:10118000DD2381F0CE296C2FC80162DE8C1781F23D
:10119000DF91CF911F910F91FF90EF90DF90CF9053
:1011A000BF900895E094CE21EECF60E0C8017AD8D8
:1011B000882371F3CE21DD2319F0C111B9CFE8CF17
:1011C000CC2309F4B5CFE4CFCF92DF92EF92FF9218
:1011D0000F931F93CF93DF937C016B01C42F122FCA
:1011E000D42FD07E8091660187FF28C0D03EA1F524
:1011F000C0906701CC2081F1D12CC601AADBD82F89
:10120000C6010196A6DB982F8D2FE816F90621F569
:101210006C2F70E0762F662766277370612B6F5FE7
:101220007F4F29E731E0402F8C2FDF91CF911F9125
:101230000F91FF90EF90DF90CF9060CF80FD31C095
:10124000D03609F460C088F4D03209F444C0D034F8
:1012500009F459C0DD2369F1DF91CF911F910F91FE
:10126000FF90EF90DF90CF900895D03A09F47DC0C1
:1012700088F42C2F2F7141E050E0D03869F7B60187
:10128000C701DF91CF911F910F91FF90EF90DF90F9
:10129000CF9000CED03C09F471C0D03E09F4B8CF55
:1012A000DBCF58DB8E159F0559F2E114F10441F2B2
:1012B000D3CF8C2F8E7081F680E090E0892B61F285
:1012C0008C2F8170DF91CF911F910F91FF90EF9044
:1012D000DF90CF9095C6CF71CF3109F0BDCF412FB0
:1012E0004F7769F0413069F0111F1127111F212F2D
:1012F00030E00FE710E0B601C70114DBADCF41E0ED
:10130000F3CF40E0F1CF2C2F30E08C2F8F71813064
:1013100029F030F0803121F08131E9F440E001C062
:1013200041E025FB222720F90DE110E030E0B60175
:10133000C701F8DA80E090E0892B09F48DCF4C2FBB
:10134000B601C701DF91CF911F910F91FF90EF90F0
:10135000DF90CF9055C6C901880F991F8E71C4FBCD
:10136000442740F9482B4250DCCF2C2F2F7043E00C
:1013700050E0C4FF84CF42E050E081CFCF71CE3146
:1013800039F0CF3109F068CF212F45E050E077CF19
:10139000212F44E050E073CF1F920F920FB60F92AF
:1013A00011242F933F938F939F93AF93BF9380917B
:1013B000400190914101A0914201B09143013091CF
:1013C0003F0123E0230F2D3758F50196A11DB11DD4
:1013D00020933F018093400190934101A0934201EB
:1013E000B09343018091440190914501A091460141
:1013F000B09147010196A11DB11D809344019093C6
:101400004501A0934601B0934701BF91AF919F91D1
:101410008F913F912F910F900FBE0F901F901895B5
:1014200026E8230F0296A11DB11DD2CF1F920F9265
:101430000FB60F9211242F933F934F935F936F93A7
:101440007F938F939F93AF93BF93EF93FF93E0911D
:101450006200F09163000995FF91EF91BF91AF9108
:101460009F918F917F916F915F914F913F912F91BC
:101470000F900FBE0F901F9018951F920F920FB6EE
:101480000F9211242F933F934F935F936F937F930A
:101490008F939F93AF93BF93EF93FF93E09160007F
:1014A000F09161000995FF91EF91BF91AF919F91EC
:1014B0008F917F916F915F914F913F912F910F90FD
:1014C0000FBE0F901F90189578948AB582608ABDE0
:1014D0008AB581608ABD83B7826083BF83B781602C
:1014E00083BF89B7826089BF80B7826080BF80B7C1
:1014F000816080BF329A319A309A379A8CB5806475
:101500008CBDC1E0C0938B011092830161E080E04B
:1015100022D66091870180918301F0D581E891E026
:10152000DDD8C093A301C0939B0161E081E013D695
:1015300060919F0180919B01E1D589E991E0CED82E
:1015400084E08093B30161E006D66091B701809199
:10155000B301D4D581EB91E0C1D81092770182E03C
:1015600080937801C0937B0162E0F5D5E0E5F1E07E
:1015700086E1DF011D928A95E9F782E990E0909378
:101580004D0180934C0182E590E090934B01809354
:101590004A0183E080936601109267012FEF3FEFCD
:1015A00030937D0120937C0110927E01809349014C
:1015B00080917B018093480163E070E08091770126
:1015C0006DD58DE190E0C5D9682F6F738DE190E006
:1015D0003FDC80937F0187E090E0BBD98F3F29F407
:1015E00088E090E0B6D98F3F09F0C0E06AE087E07C
:1015F00090E02EDC6DE088E090E02ADC80E09AD973
:10160000CC2319F085E480938001809180018111C1
:1016100001C0E6D98AE790E09CD991E0811101C030
:1016200090E090934F01882369F1E0914E018E2F55
:101630008170809386012E2F30E040E050E060E022
:1016400070E080E090E001E029D3217020939E01BA
:101650002E2F30E040E050E060E070E080E090E06D
:1016600002E01CD321702093B6012E2F30E040E021
:1016700050E060E070E080E090E003E00FD3217084
:101680002093CE01412C55245394C0E06C2EC0E031
:101690007C2ED0E0CD2ED0E0DD2E10E0A12E10E08B
:1016A000B12E00E0802E00E0902E8091680188230A
:1016B000A1F0B3D50091690110916A0120916B01ED
:1016C00030916C01601B710B820B930B65317105BE
:1016D0008105910510F080E02DD980915201882379
:1016E00071F1F89488E0EEE5F1E0ADEFB1E0019042
:1016F0000D928A95E1F71092520178948091FD0144
:10170000E82FF0E0E150FE4F863018F411928F5F21
:10171000FBCF8DEF91E08DD58091FF0181115FC0EE
:101720009091000291115BC0A114B10409F068D43A
:1017300080916801882309F44FC081E085D56DD57B
:101740000091F9011091FA012091FB013091FC0107
:10175000601B710B820B930B64367105810591053B
:1017600018F089EC91E0C7D7C1E8D1E0E881F981B0
:101770000190F081E02DCE010995689681EE91E00F
:101780008C179D0799F780918001882309F40FC277
:101790008114910409F008C28091800181508093E6
:1017A000800190E063E070E053D2FC01E659FF4F06
:1017B0006281808191812091660120612093660180
:1017C00047DB809166018F7E809366018091800166
:1017D0008111EDC105D9EBC181E0ACD8B0CF9091BA
:1017E0006801992309F479C08057803108F073C0EB
:1017F00081E02AD5C091FD0180916F01C81309C015
:101800004C2F50E061E771E08FEF91E088D2892B97
:1018100061F010926E0188E0EDEFF1E0AFE6B1E02B
:1018200001900D928A95E1F78ACF80916E018F5FCA
:1018300080936E01C330C1F52091FF01822F877024
:1018400010910002853021F410936D0132D877CFCA
:10185000CDE1D0E0843089F0C82FD0E0843060F44E
:1018600080916D01882341F08150990B880F991F59
:10187000880F991FC80FD91F219623FF0CC061E064
:10188000CE0110D5882309F45ACF612FCE01E0DABA
:10189000181355CFDBCF60E0CE0104D5882309F4BF
:1018A0004ECFCE0156D8F4CFC43009F048CF809146
:1018B000FF01682F70E0762F66276627737090917E
:1018C0000002692B6F5F7F4F21E934E040910102F4
:1018D0008C7014DC34CF80E02DD8E091FF01EF3F15
:1018E00051F48091000281112ACFC114D10409F46E
:1018F00026CF86D324CFE7FD0CC0009102022091B1
:1019000001024091000270E060E08E2F90E05CDC0C
:1019100016CFE03C08F037C19091660197FF0FCFDA
:1019200040910002242F30E0E901C095D095CC0F02
:10193000DD1FCC0FDD1FC07CD170EF73CE2B359532
:101940002795B22FB3703B2E8091FD01853019F59C
:101950004C784C3001F5FED78C179D0721F0CF3F16
:10196000D14009F0ECCEC0910002D0E0DC2FCC27B2
:10197000CC27D37080910102C80FD11D2196109100
:10198000020261E0CE018ED4612F882309F4D7CE04
:10199000CE015EDAD4CE7E01A1E0EA1AF108EE0CA7
:1019A000FF1CEE0CFF1CE32887010F5F1F4F809187
:1019B0007E018823C9F096FF39C0C801B20159D110
:1019C000682F81E090E044DAC80117FF02C081501F
:1019D0009F4F692F89E090E03BDA6114710411F0A8
:1019E000C8010ED310927E018091660180FD34C043
:1019F0008091FD01843009F045C080910002897812
:101A0000813009F09CCE80E090E0892B21F060913C
:101A10000102C801F5D2A0E0B0E0AB2B09F48FCEF3
:101A200040910102632DC801EBD289CEBE016F73D4
:101A3000772781E090E00CDABE0146E07595679566
:101A40004A95E1F789E090E003DA80E090E0892BA5
:101A500049F2CE01D5D2C6CF86FF09C07BD7801709
:101A6000910731F20D3F97E0190714F668CE72D74F
:101A70008C179D0709F4BCCFCF3FA1E0DA0709F42A
:101A8000B7CF5DCE833051F540910002B42FB170D5
:101A9000EB2E43FBFF24F0F880E090E0892B29F047
:101AA00047702F2DBE01C801ABD28091660186FF21
:101AB0000AC0A0E0B0E0AB2B09F441CE4F2D6E2D53
:101AC000C8019ED23CCE80E090E0892B09F437CE4D
:101AD0002F2D4E2D632DCE0193D231CE863009F0BD
:101AE0002ECE80910002982F9978913021F08F7836
:101AF000803809F024CE8091660186FF23C02AD762
:101B000080179107D9F48091010290E0D82FCC275B
:101B1000CC27D37020910202C20FD11D21961091C3
:101B200003029595879595958795837099278230BF
:101B3000910581F0039709F424CF01CE0D3F1740A2
:101B400014F7FDCD07D78C179D07E9F2CF3FD140A1
:101B5000D1F2F5CD14FFF3CD61E0CE01A3D38823FC
:101B600009F4EDCDCE01F5D6912F977061E070E0CC
:101B700001C0660F9A95EAF713FF02C0682B08CFE1
:101B80006095682305CFE83E08F0D9CDE05CFF0BF7
:101B90008091000200910302209102024091010213
:101BA00061E070E09E2FB3CE2BD28111F5CD80E0A5
:101BB00090E0892B09F479CD23D264CDEF92FF9286
:101BC0000F931F93CF93DF93C1E8D1E088E6E82E0F
:101BD00080E0F82E01E01FEFF982E8820B831D827E
:101BE0001E8219871A861B86188A198A1A8A1B8AE6
:101BF00061E08A81B0D2CE0171D5689681E0C93F9B
:101C0000D80751F70AD36093F9017093FA018093D2
:101C1000FB019093FC01DF91CF911F910F91FF90F9
:101C2000EF900895E199FECF9FBB8EBBE09A992774
:101C30008DB30895262FE199FECF1CBA9FBB8EBBB2
:101C40002DBB0FB6F894E29AE19A0FBE0196089563
:101C50000024552704C0080E591F880F991F0097AC
:101C600029F076956795B8F37105B9F7802D952F12
:101C7000089597FB072E16F4009406D077FD08D040
:101C800034D007FC05D03EF4909581959F4F089580
:101C9000709561957F4F089597FD1094002E083040
:101CA00098F00850232F342F452F562F672F782F69
:101CB000892F912DF4CF15949795879577956795F2
:101CC00057954795379527950A95AAF71124002D22
:101CD00008950024A7FD00942A17300540055005FB
:101CE00060057005800590050895AA1BBB1B51E196
:101CF00007C0AA1FBB1FA617B70710F0A61BB70B7C
:101D0000881F991F5A95A9F780959095BC01CD0120
:101D10000895EE0FFF1F0590F491E02D0994FB014B
:101D2000DC0104C08D910190801921F44150504094
:0C1D3000C8F7881B990B0895F894FFCFAA
:101D3C002301230100000000D103010003020078FD
:101D4C000500FF07000208000D0F00001000000D39
:101D5C0000001100001200031D00021E00031F00F2
:101D6C0004200008210010220000230000240000A1
:101D7C002500002600002700002800002900002A6A
:101D8C0000002B00002C00002D00002E00002F0066
:101D9C00003000003100003200003300003400003D
:101DAC003500003600003700003800003900003ADA
:101DBC0000003D00033E00033F00034000024100D1
:101DCC0002420001430001440003450002460002A8
:101DDC004700644800644900644A00644B00644C4A
:101DEC0000644D00644E00644F0064500064510068
:101DFC00FF5200FF560000570000580064590000C5
:0A1E0C005A00007A0000FF000000F9
:00000001FF
